{"abi":[{"type":"function","name":"allAccounts","inputs":[{"name":"","type":"uint256","internalType":"uint256"}],"outputs":[{"name":"","type":"address","internalType":"address"}],"stateMutability":"view"},{"type":"function","name":"createAccount","inputs":[],"outputs":[{"name":"","type":"address","internalType":"address"}],"stateMutability":"nonpayable"},{"type":"function","name":"getAccountsCount","inputs":[],"outputs":[{"name":"","type":"uint256","internalType":"uint256"}],"stateMutability":"view"},{"type":"function","name":"getSmartAccount","inputs":[{"name":"","type":"address","internalType":"address"}],"outputs":[{"name":"","type":"address","internalType":"address"}],"stateMutability":"view"},{"type":"event","name":"AccountCreated","inputs":[{"name":"owner","type":"address","indexed":true,"internalType":"address"},{"name":"accountAddress","type":"address","indexed":false,"internalType":"address"}],"anonymous":false}],"bytecode":{"object":"0x6080604052348015600e575f80fd5b506123748061001c5f395ff3fe608060405234801561000f575f80fd5b506004361061004a575f3560e01c80636c3fda1d1461004e578063770e31061461007e5780639199a07c1461009c5780639dca362f146100cc575b5f80fd5b610068600480360381019061006391906103d6565b6100ea565b6040516100759190610440565b60405180910390f35b610086610125565b6040516100939190610468565b60405180910390f35b6100b660048036038101906100b191906104ab565b610131565b6040516100c39190610440565b60405180910390f35b6100d4610160565b6040516100e19190610440565b60405180910390f35b600181815481106100f9575f80fd5b905f5260205f20015f915054906101000a900473ffffffffffffffffffffffffffffffffffffffff1681565b5f600180549050905090565b5f602052805f5260405f205f915054906101000a900473ffffffffffffffffffffffffffffffffffffffff1681565b5f8073ffffffffffffffffffffffffffffffffffffffff165f803373ffffffffffffffffffffffffffffffffffffffff1673ffffffffffffffffffffffffffffffffffffffff1681526020019081526020015f205f9054906101000a900473ffffffffffffffffffffffffffffffffffffffff1673ffffffffffffffffffffffffffffffffffffffff161461022a576040517f08c379a000000000000000000000000000000000000000000000000000000000815260040161022190610556565b60405180910390fd5b5f3360405161023890610392565b6102429190610440565b604051809103905ff08015801561025b573d5f803e3d5ffd5b5090505f819050805f803373ffffffffffffffffffffffffffffffffffffffff1673ffffffffffffffffffffffffffffffffffffffff1681526020019081526020015f205f6101000a81548173ffffffffffffffffffffffffffffffffffffffff021916908373ffffffffffffffffffffffffffffffffffffffff160217905550600181908060018154018082558091505060019003905f5260205f20015f9091909190916101000a81548173ffffffffffffffffffffffffffffffffffffffff021916908373ffffffffffffffffffffffffffffffffffffffff1602179055503373ffffffffffffffffffffffffffffffffffffffff167fac631f3001b55ea1509cf3d7e74898f85392a61a76e8149181ae1259622dabc8826040516103829190610440565b60405180910390a2809250505090565b611dca8061057583390190565b5f80fd5b5f819050919050565b6103b5816103a3565b81146103bf575f80fd5b50565b5f813590506103d0816103ac565b92915050565b5f602082840312156103eb576103ea61039f565b5b5f6103f8848285016103c2565b91505092915050565b5f73ffffffffffffffffffffffffffffffffffffffff82169050919050565b5f61042a82610401565b9050919050565b61043a81610420565b82525050565b5f6020820190506104535f830184610431565b92915050565b610462816103a3565b82525050565b5f60208201905061047b5f830184610459565b92915050565b61048a81610420565b8114610494575f80fd5b50565b5f813590506104a581610481565b92915050565b5f602082840312156104c0576104bf61039f565b5b5f6104cd84828501610497565b91505092915050565b5f82825260208201905092915050565b7f536d6172744163636f756e74466163746f72793a206163636f756e7420616c725f8201527f6561647920657869737473000000000000000000000000000000000000000000602082015250565b5f610540602b836104d6565b915061054b826104e6565b604082019050919050565b5f6020820190508181035f83015261056d81610534565b905091905056fe608060405234801561000f575f80fd5b50604051611dca380380611dca833981810160405281019061003191906100d4565b805f806101000a81548173ffffffffffffffffffffffffffffffffffffffff021916908373ffffffffffffffffffffffffffffffffffffffff160217905550506100ff565b5f80fd5b5f73ffffffffffffffffffffffffffffffffffffffff82169050919050565b5f6100a38261007a565b9050919050565b6100b381610099565b81146100bd575f80fd5b50565b5f815190506100ce816100aa565b92915050565b5f602082840312156100e9576100e8610076565b5b5f6100f6848285016100c0565b91505092915050565b611cbe8061010c5f395ff3fe6080604052600436106100c5575f3560e01c8063a7addd561161007e578063b61d27f611610058578063b61d27f6146102a2578063b7b8d604146102de578063bff571ef1461031d578063fa54080114610359576100cc565b8063a7addd56146101fe578063a7bb58031461023a578063affed0e014610278576100cc565b8063025b3a70146100d0578063260d711e1461010c57806384f4fc6a146101485780638da5cb5b1461017057806397aba7f91461019a5780639881be7f146101d6576100cc565b366100cc57005b5f80fd5b3480156100db575f80fd5b506100f660048036038101906100f19190610ebc565b610395565b6040516101039190610f6a565b60405180910390f35b348015610117575f80fd5b50610132600480360381019061012d9190610fad565b6103d5565b60405161013f9190610ff2565b60405180910390f35b348015610153575f80fd5b5061016e6004803603810190610169919061100b565b6103f2565b005b34801561017b575f80fd5b5061018461052b565b6040516101919190611045565b60405180910390f35b3480156101a5575f80fd5b506101c060048036038101906101bb9190611196565b61054e565b6040516101cd9190611045565b60405180910390f35b3480156101e1575f80fd5b506101fc60048036038101906101f791906111f0565b6105b8565b005b348015610209575f80fd5b50610224600480360381019061021f9190611240565b61073c565b6040516102319190611311565b60405180910390f35b348015610245575f80fd5b50610260600480360381019061025b9190611331565b61089b565b60405161026f93929190611393565b60405180910390f35b348015610283575f80fd5b5061028c610900565b60405161029991906113d7565b60405180910390f35b3480156102ad575f80fd5b506102c860048036038101906102c39190611240565b610906565b6040516102d59190611311565b60405180910390f35b3480156102e9575f80fd5b5061030460048036038101906102ff919061100b565b6109ab565b60405161031494939291906113f0565b60405180910390f35b348015610328575f80fd5b50610343600480360381019061033e9190611433565b6109e3565b6040516103509190611311565b60405180910390f35b348015610364575f80fd5b5061037f600480360381019061037a9190610fad565b610c7f565b60405161038c9190610f6a565b60405180910390f35b5f308787878787876040516020016103b39796959493929190611590565b6040516020818303038152906040528051906020012090509695505050505050565b6002602052805f5260405f205f915054906101000a900460ff1681565b5f8054906101000a900473ffffffffffffffffffffffffffffffffffffffff1673ffffffffffffffffffffffffffffffffffffffff163373ffffffffffffffffffffffffffffffffffffffff161461047f576040517f08c379a000000000000000000000000000000000000000000000000000000000815260040161047690611657565b60405180910390fd5b5f60015f8373ffffffffffffffffffffffffffffffffffffffff1673ffffffffffffffffffffffffffffffffffffffff1681526020019081526020015f206003015f6101000a81548160ff0219169083151502179055508073ffffffffffffffffffffffffffffffffffffffff167ff0025259c2d2a861da11f3a0abb8a1a21b92950542fb2ad8ec119b86f18e07a55f805f604051610520939291906116b7565b60405180910390a250565b5f8054906101000a900473ffffffffffffffffffffffffffffffffffffffff1681565b5f805f8061055b8561089b565b9250925092506001868285856040515f815260200160405260405161058394939291906116ec565b6020604051602081039080840390855afa1580156105a3573d5f803e3d5ffd5b50505060206040510351935050505092915050565b5f8054906101000a900473ffffffffffffffffffffffffffffffffffffffff1673ffffffffffffffffffffffffffffffffffffffff163373ffffffffffffffffffffffffffffffffffffffff1614610645576040517f08c379a000000000000000000000000000000000000000000000000000000000815260040161063c90611657565b60405180910390fd5b60405180608001604052808381526020018281526020015f81526020016001151581525060015f8573ffffffffffffffffffffffffffffffffffffffff1673ffffffffffffffffffffffffffffffffffffffff1681526020019081526020015f205f820151815f015560208201518160010155604082015181600201556060820151816003015f6101000a81548160ff0219169083151502179055509050508273ffffffffffffffffffffffffffffffffffffffff167ff0025259c2d2a861da11f3a0abb8a1a21b92950542fb2ad8ec119b86f18e07a56001848460405161072f9392919061172f565b60405180910390a2505050565b60605f60015f3373ffffffffffffffffffffffffffffffffffffffff1673ffffffffffffffffffffffffffffffffffffffff1681526020019081526020015f209050806003015f9054906101000a900460ff166107ce576040517f08c379a00000000000000000000000000000000000000000000000000000000081526004016107c5906117d4565b60405180910390fd5b805f0154421115610814576040517f08c379a000000000000000000000000000000000000000000000000000000000815260040161080b90611862565b60405180910390fd5b806001015485826002015461082991906118ad565b111561086a576040517f08c379a000000000000000000000000000000000000000000000000000000000815260040161086190611950565b60405180910390fd5b84816002015f82825461087d91906118ad565b9250508190555061089086868686610cae565b915050949350505050565b5f805f60418451146108e2576040517f08c379a00000000000000000000000000000000000000000000000000000000081526004016108d9906119de565b60405180910390fd5b602084015192506040840151915060608401515f1a90509193909250565b60035481565b60605f8054906101000a900473ffffffffffffffffffffffffffffffffffffffff1673ffffffffffffffffffffffffffffffffffffffff163373ffffffffffffffffffffffffffffffffffffffff1614610995576040517f08c379a000000000000000000000000000000000000000000000000000000000815260040161098c90611657565b60405180910390fd5b6109a185858585610cae565b9050949350505050565b6001602052805f5260405f205f91509050805f015490806001015490806002015490806003015f9054906101000a900460ff16905084565b60606003548414610a29576040517f08c379a0000000000000000000000000000000000000000000000000000000008152600401610a2090611a46565b60405180910390fd5b5f60015f8773ffffffffffffffffffffffffffffffffffffffff1673ffffffffffffffffffffffffffffffffffffffff1681526020019081526020015f209050806003015f9054906101000a900460ff16610ab9576040517f08c379a0000000000000000000000000000000000000000000000000000000008152600401610ab0906117d4565b60405180910390fd5b805f0154421115610aff576040517f08c379a0000000000000000000000000000000000000000000000000000000008152600401610af690611862565b60405180910390fd5b8060010154898260020154610b1491906118ad565b1115610b55576040517f08c379a0000000000000000000000000000000000000000000000000000000008152600401610b4c90611950565b60405180910390fd5b5f610b648b8b8b8b8b8b610395565b90505f610b7082610c7f565b90505f610bc08288888080601f0160208091040260200160405190810160405280939291908181526020018383808284375f81840152601f19601f8201169050808301925050505050505061054e565b90508873ffffffffffffffffffffffffffffffffffffffff168173ffffffffffffffffffffffffffffffffffffffff1614610c30576040517f08c379a0000000000000000000000000000000000000000000000000000000008152600401610c2790611aae565b60405180910390fd5b60035f815480929190610c4290611acc565b91905055508b846002015f828254610c5a91906118ad565b92505081905550610c6d8d8d8d8d610cae565b94505050505098975050505050505050565b5f81604051602001610c919190611b87565b604051602081830303815290604052805190602001209050919050565b60605f808673ffffffffffffffffffffffffffffffffffffffff16868686604051610cda929190611bac565b5f6040518083038185875af1925050503d805f8114610d14576040519150601f19603f3d011682016040523d82523d5f602084013e610d19565b606091505b509150915081610d5e576040517f08c379a0000000000000000000000000000000000000000000000000000000008152600401610d5590611c0e565b60405180910390fd5b8673ffffffffffffffffffffffffffffffffffffffff167f47d99ad340f52da66535aff7e10da1ceb85a32bcbd9fa1c42314d194545e14d2878787604051610da893929190611c58565b60405180910390a28092505050949350505050565b5f604051905090565b5f80fd5b5f80fd5b5f73ffffffffffffffffffffffffffffffffffffffff82169050919050565b5f610df782610dce565b9050919050565b610e0781610ded565b8114610e11575f80fd5b50565b5f81359050610e2281610dfe565b92915050565b5f819050919050565b610e3a81610e28565b8114610e44575f80fd5b50565b5f81359050610e5581610e31565b92915050565b5f80fd5b5f80fd5b5f80fd5b5f8083601f840112610e7c57610e7b610e5b565b5b8235905067ffffffffffffffff811115610e9957610e98610e5f565b5b602083019150836001820283011115610eb557610eb4610e63565b5b9250929050565b5f805f805f8060a08789031215610ed657610ed5610dc6565b5b5f610ee389828a01610e14565b9650506020610ef489828a01610e47565b955050604087013567ffffffffffffffff811115610f1557610f14610dca565b5b610f2189828a01610e67565b94509450506060610f3489828a01610e14565b9250506080610f4589828a01610e47565b9150509295509295509295565b5f819050919050565b610f6481610f52565b82525050565b5f602082019050610f7d5f830184610f5b565b92915050565b610f8c81610f52565b8114610f96575f80fd5b50565b5f81359050610fa781610f83565b92915050565b5f60208284031215610fc257610fc1610dc6565b5b5f610fcf84828501610f99565b91505092915050565b5f8115159050919050565b610fec81610fd8565b82525050565b5f6020820190506110055f830184610fe3565b92915050565b5f602082840312156110205761101f610dc6565b5b5f61102d84828501610e14565b91505092915050565b61103f81610ded565b82525050565b5f6020820190506110585f830184611036565b92915050565b5f80fd5b5f601f19601f8301169050919050565b7f4e487b71000000000000000000000000000000000000000000000000000000005f52604160045260245ffd5b6110a882611062565b810181811067ffffffffffffffff821117156110c7576110c6611072565b5b80604052505050565b5f6110d9610dbd565b90506110e5828261109f565b919050565b5f67ffffffffffffffff82111561110457611103611072565b5b61110d82611062565b9050602081019050919050565b828183375f83830152505050565b5f61113a611135846110ea565b6110d0565b9050828152602081018484840111156111565761115561105e565b5b61116184828561111a565b509392505050565b5f82601f83011261117d5761117c610e5b565b5b813561118d848260208601611128565b91505092915050565b5f80604083850312156111ac576111ab610dc6565b5b5f6111b985828601610f99565b925050602083013567ffffffffffffffff8111156111da576111d9610dca565b5b6111e685828601611169565b9150509250929050565b5f805f6060848603121561120757611206610dc6565b5b5f61121486828701610e14565b935050602061122586828701610e47565b925050604061123686828701610e47565b9150509250925092565b5f805f806060858703121561125857611257610dc6565b5b5f61126587828801610e14565b945050602061127687828801610e47565b935050604085013567ffffffffffffffff81111561129757611296610dca565b5b6112a387828801610e67565b925092505092959194509250565b5f81519050919050565b5f82825260208201905092915050565b8281835e5f83830152505050565b5f6112e3826112b1565b6112ed81856112bb565b93506112fd8185602086016112cb565b61130681611062565b840191505092915050565b5f6020820190508181035f83015261132981846112d9565b905092915050565b5f6020828403121561134657611345610dc6565b5b5f82013567ffffffffffffffff81111561136357611362610dca565b5b61136f84828501611169565b91505092915050565b5f60ff82169050919050565b61138d81611378565b82525050565b5f6060820190506113a65f830186610f5b565b6113b36020830185610f5b565b6113c06040830184611384565b949350505050565b6113d181610e28565b82525050565b5f6020820190506113ea5f8301846113c8565b92915050565b5f6080820190506114035f8301876113c8565b61141060208301866113c8565b61141d60408301856113c8565b61142a6060830184610fe3565b95945050505050565b5f805f805f805f8060c0898b03121561144f5761144e610dc6565b5b5f61145c8b828c01610e14565b985050602061146d8b828c01610e47565b975050604089013567ffffffffffffffff81111561148e5761148d610dca565b5b61149a8b828c01610e67565b965096505060606114ad8b828c01610e14565b94505060806114be8b828c01610e47565b93505060a089013567ffffffffffffffff8111156114df576114de610dca565b5b6114eb8b828c01610e67565b92509250509295985092959890939650565b5f8160601b9050919050565b5f611513826114fd565b9050919050565b5f61152482611509565b9050919050565b61153c61153782610ded565b61151a565b82525050565b5f819050919050565b61155c61155782610e28565b611542565b82525050565b5f81905092915050565b5f6115778385611562565b935061158483858461111a565b82840190509392505050565b5f61159b828a61152b565b6014820191506115ab828961152b565b6014820191506115bb828861154b565b6020820191506115cc82868861156c565b91506115d8828561152b565b6014820191506115e8828461154b565b60208201915081905098975050505050505050565b5f82825260208201905092915050565b7f536d6172744163636f756e743a206f6e6c79206f776e657200000000000000005f82015250565b5f6116416018836115fd565b915061164c8261160d565b602082019050919050565b5f6020820190508181035f83015261166e81611635565b9050919050565b5f819050919050565b5f819050919050565b5f6116a161169c61169784611675565b61167e565b610e28565b9050919050565b6116b181611687565b82525050565b5f6060820190506116ca5f830186610fe3565b6116d760208301856116a8565b6116e460408301846116a8565b949350505050565b5f6080820190506116ff5f830187610f5b565b61170c6020830186611384565b6117196040830185610f5b565b6117266060830184610f5b565b95945050505050565b5f6060820190506117425f830186610fe3565b61174f60208301856113c8565b61175c60408301846113c8565b949350505050565b7f536d6172744163636f756e743a2073657373696f6e206b6579206e6f742061635f8201527f7469766500000000000000000000000000000000000000000000000000000000602082015250565b5f6117be6024836115fd565b91506117c982611764565b604082019050919050565b5f6020820190508181035f8301526117eb816117b2565b9050919050565b7f536d6172744163636f756e743a2073657373696f6e206b6579206578706972655f8201527f6400000000000000000000000000000000000000000000000000000000000000602082015250565b5f61184c6021836115fd565b9150611857826117f2565b604082019050919050565b5f6020820190508181035f83015261187981611840565b9050919050565b7f4e487b71000000000000000000000000000000000000000000000000000000005f52601160045260245ffd5b5f6118b782610e28565b91506118c283610e28565b92508282019050808211156118da576118d9611880565b5b92915050565b7f536d6172744163636f756e743a2073657373696f6e206b6579206275646765745f8201527f2065786365656465640000000000000000000000000000000000000000000000602082015250565b5f61193a6029836115fd565b9150611945826118e0565b604082019050919050565b5f6020820190508181035f8301526119678161192e565b9050919050565b7f536d6172744163636f756e743a20696e76616c6964207369676e6174757265205f8201527f6c656e6774680000000000000000000000000000000000000000000000000000602082015250565b5f6119c86026836115fd565b91506119d38261196e565b604082019050919050565b5f6020820190508181035f8301526119f5816119bc565b9050919050565b7f536d6172744163636f756e743a20696e76616c6964206e6f6e636500000000005f82015250565b5f611a30601b836115fd565b9150611a3b826119fc565b602082019050919050565b5f6020820190508181035f830152611a5d81611a24565b9050919050565b7f536d6172744163636f756e743a20696e76616c6964207369676e6174757265005f82015250565b5f611a98601f836115fd565b9150611aa382611a64565b602082019050919050565b5f6020820190508181035f830152611ac581611a8c565b9050919050565b5f611ad682610e28565b91507fffffffffffffffffffffffffffffffffffffffffffffffffffffffffffffffff8203611b0857611b07611880565b5b600182019050919050565b5f81905092915050565b7f19457468657265756d205369676e6564204d6573736167653a0a3332000000005f82015250565b5f611b51601c83611b13565b9150611b5c82611b1d565b601c82019050919050565b5f819050919050565b611b81611b7c82610f52565b611b67565b82525050565b5f611b9182611b45565b9150611b9d8284611b70565b60208201915081905092915050565b5f611bb882848661156c565b91508190509392505050565b7f536d6172744163636f756e743a207472616e73616374696f6e206661696c65645f82015250565b5f611bf86020836115fd565b9150611c0382611bc4565b602082019050919050565b5f6020820190508181035f830152611c2581611bec565b9050919050565b5f611c3783856112bb565b9350611c4483858461111a565b611c4d83611062565b840190509392505050565b5f604082019050611c6b5f8301866113c8565b8181036020830152611c7e818486611c2c565b905094935050505056fea26469706673582212201717425a3aac4c192672d4508dadd2ad14002a88a6ee4c116597d5eec61f125a64736f6c634300081a0033a2646970667358221220bc62052be7e84dd7da665350146f62c69f38efc128178a60c417f9a2be69e85264736f6c634300081a0033","linkReferences":{}},"methodIdentifiers":{"allAccounts(uint256)":"6c3fda1d","createAccount()":"9dca362f","getAccountsCount()":"770e3106","getSmartAccount(address)":"9199a07c"},"id":1}