{"abi":[{"type":"constructor","inputs":[{"name":"_v2Router","type":"address","internalType":"address"},{"name":"_v3Router","type":"address","internalType":"address"},{"name":"_weth","type":"address","internalType":"address"}],"stateMutability":"nonpayable"},{"type":"receive","stateMutability":"payable"},{"type":"function","name":"buyToken","inputs":[{"name":"dexType","type":"uint8","internalType":"uint8"},{"name":"tokenOut","type":"address","internalType":"address"},{"name":"fee","type":"uint24","internalType":"uint24"},{"name":"minAmountOut","type":"uint256","internalType":"uint256"}],"outputs":[{"name":"amountOut","type":"uint256","internalType":"uint256"}],"stateMutability":"payable"},{"type":"function","name":"sellToken","inputs":[{"name":"dexType","type":"uint8","internalType":"uint8"},{"name":"tokenIn","type":"address","internalType":"address"},{"name":"amountIn","type":"uint256","internalType":"uint256"},{"name":"fee","type":"uint24","internalType":"uint24"},{"name":"minAmountOut","type":"uint256","internalType":"uint256"}],"outputs":[{"name":"amountOut","type":"uint256","internalType":"uint256"}],"stateMutability":"nonpayable"},{"type":"function","name":"uniswapV2Router","inputs":[],"outputs":[{"name":"","type":"address","internalType":"address"}],"stateMutability":"view"},{"type":"function","name":"uniswapV3Router","inputs":[],"outputs":[{"name":"","type":"address","internalType":"address"}],"stateMutability":"view"},{"type":"function","name":"weth","inputs":[],"outputs":[{"name":"","type":"address","internalType":"address"}],"stateMutability":"view"},{"type":"event","name":"TokenSwapped","inputs":[{"name":"user","type":"address","indexed":true,"internalType":"address"},{"name":"tokenIn","type":"address","indexed":true,"internalType":"address"},{"name":"tokenOut","type":"address","indexed":true,"internalType":"address"},{"name":"amountIn","type":"uint256","indexed":false,"internalType":"uint256"},{"name":"amountOut","type":"uint256","indexed":false,"internalType":"uint256"}],"anonymous":false}],"bytecode":{"object":"0x60e060405234801561000f575f80fd5b50604051611ade380380611ade83398181016040528101906100319190610133565b8273ffffffffffffffffffffffffffffffffffffffff1660a08173ffffffffffffffffffffffffffffffffffffffff16815250508173ffffffffffffffffffffffffffffffffffffffff1660c08173ffffffffffffffffffffffffffffffffffffffff16815250508073ffffffffffffffffffffffffffffffffffffffff1660808173ffffffffffffffffffffffffffffffffffffffff1681525050505050610183565b5f80fd5b5f73ffffffffffffffffffffffffffffffffffffffff82169050919050565b5f610102826100d9565b9050919050565b610112816100f8565b811461011c575f80fd5b50565b5f8151905061012d81610109565b92915050565b5f805f6060848603121561014a576101496100d5565b5b5f6101578682870161011f565b93505060206101688682870161011f565b92505060406101798682870161011f565b9150509250925092565b60805160a05160c0516118c86102165f395f81816101680152818161059e0152818161065c01528181610b570152610c1501525f8181610144015281816102d50152818161049e01526109ba01525f818161018c0152818161042e015281816106c0015281816107bb015281816108fc01528181610a9e01528181610b1b01528181610c5d0152610d8b01526118c85ff3fe60806040526004361061004d575f3560e01c80631694505e146100585780632c76d7a6146100825780633fc8cef3146100ac578063b3240665146100d6578063bf30098a1461011257610054565b3661005457005b5f80fd5b348015610063575f80fd5b5061006c610142565b6040516100799190610e57565b60405180910390f35b34801561008d575f80fd5b50610096610166565b6040516100a39190610e57565b60405180910390f35b3480156100b7575f80fd5b506100c061018a565b6040516100cd9190610e57565b60405180910390f35b3480156100e1575f80fd5b506100fc60048036038101906100f79190610f4c565b6101ae565b6040516101099190610fd2565b60405180910390f35b61012c60048036038101906101279190610feb565b610860565b6040516101399190610fd2565b60405180910390f35b7f000000000000000000000000000000000000000000000000000000000000000081565b7f000000000000000000000000000000000000000000000000000000000000000081565b7f000000000000000000000000000000000000000000000000000000000000000081565b5f8084116101f1576040517f08c379a00000000000000000000000000000000000000000000000000000000081526004016101e8906110cf565b60405180910390fd5b8473ffffffffffffffffffffffffffffffffffffffff166323b872dd3330876040518463ffffffff1660e01b815260040161022e939291906110ed565b6020604051808303815f875af115801561024a573d5f803e3d5ffd5b505050506040513d601f19601f8201168201806040525081019061026e9190611157565b6102ad576040517f08c379a00000000000000000000000000000000000000000000000000000000081526004016102a4906111f2565b60405180910390fd5b5f8660ff1603610580578473ffffffffffffffffffffffffffffffffffffffff1663095ea7b37f0000000000000000000000000000000000000000000000000000000000000000866040518363ffffffff1660e01b8152600401610312929190611210565b6020604051808303815f875af115801561032e573d5f803e3d5ffd5b505050506040513d601f19601f820116820180604052508101906103529190611157565b610391576040517f08c379a000000000000000000000000000000000000000000000000000000000815260040161038890611281565b60405180910390fd5b5f600267ffffffffffffffff8111156103ad576103ac61129f565b5b6040519080825280602002602001820160405280156103db5781602001602082028036833780820191505090505b50905085815f815181106103f2576103f16112cc565b5b602002602001019073ffffffffffffffffffffffffffffffffffffffff16908173ffffffffffffffffffffffffffffffffffffffff16815250507f000000000000000000000000000000000000000000000000000000000000000081600181518110610461576104606112cc565b5b602002602001019073ffffffffffffffffffffffffffffffffffffffff16908173ffffffffffffffffffffffffffffffffffffffff16815250505f7f000000000000000000000000000000000000000000000000000000000000000073ffffffffffffffffffffffffffffffffffffffff166318cbafe587868533610258426104ea9190611326565b6040518663ffffffff1660e01b815260040161050a959493929190611410565b5f604051808303815f875af1158015610525573d5f803e3d5ffd5b505050506040513d5f823e3d601f19601f8201168201806040525081019061054d919061159f565b9050806001825161055e91906115e6565b8151811061056f5761056e6112cc565b5b6020026020010151925050506107b9565b8473ffffffffffffffffffffffffffffffffffffffff1663095ea7b37f0000000000000000000000000000000000000000000000000000000000000000866040518363ffffffff1660e01b81526004016105db929190611210565b6020604051808303815f875af11580156105f7573d5f803e3d5ffd5b505050506040513d601f19601f8201168201806040525081019061061b9190611157565b61065a576040517f08c379a000000000000000000000000000000000000000000000000000000000815260040161065190611281565b60405180910390fd5b7f000000000000000000000000000000000000000000000000000000000000000073ffffffffffffffffffffffffffffffffffffffff1663414bf3896040518061010001604052808873ffffffffffffffffffffffffffffffffffffffff1681526020017f000000000000000000000000000000000000000000000000000000000000000073ffffffffffffffffffffffffffffffffffffffff1681526020018662ffffff1681526020013373ffffffffffffffffffffffffffffffffffffffff1681526020016102584261072f9190611326565b81526020018781526020018581526020015f73ffffffffffffffffffffffffffffffffffffffff168152506040518263ffffffff1660e01b815260040161077691906116e6565b6020604051808303815f875af1158015610792573d5f803e3d5ffd5b505050506040513d601f19601f820116820180604052508101906107b69190611700565b90505b7f000000000000000000000000000000000000000000000000000000000000000073ffffffffffffffffffffffffffffffffffffffff168573ffffffffffffffffffffffffffffffffffffffff163373ffffffffffffffffffffffffffffffffffffffff167fd36cc53ba71bc76a3db3364981f5296dd4ca5eba0e8c89874f2170515bd20d24878560405161084f92919061172b565b60405180910390a495945050505050565b5f8034116108a3576040517f08c379a000000000000000000000000000000000000000000000000000000000815260040161089a9061179c565b60405180910390fd5b5f8560ff1603610a9c575f600267ffffffffffffffff8111156108c9576108c861129f565b5b6040519080825280602002602001820160405280156108f75781602001602082028036833780820191505090505b5090507f0000000000000000000000000000000000000000000000000000000000000000815f8151811061092e5761092d6112cc565b5b602002602001019073ffffffffffffffffffffffffffffffffffffffff16908173ffffffffffffffffffffffffffffffffffffffff1681525050848160018151811061097d5761097c6112cc565b5b602002602001019073ffffffffffffffffffffffffffffffffffffffff16908173ffffffffffffffffffffffffffffffffffffffff16815250505f7f000000000000000000000000000000000000000000000000000000000000000073ffffffffffffffffffffffffffffffffffffffff16637ff36ab53486853361025842610a069190611326565b6040518663ffffffff1660e01b8152600401610a2594939291906117ba565b5f6040518083038185885af1158015610a40573d5f803e3d5ffd5b50505050506040513d5f823e3d601f19601f82011682018060405250810190610a69919061159f565b90508060018251610a7a91906115e6565b81518110610a8b57610a8a6112cc565b5b602002602001015192505050610d72565b7f000000000000000000000000000000000000000000000000000000000000000073ffffffffffffffffffffffffffffffffffffffff1663d0e30db0346040518263ffffffff1660e01b81526004015f604051808303818588803b158015610b02575f80fd5b505af1158015610b14573d5f803e3d5ffd5b50505050507f000000000000000000000000000000000000000000000000000000000000000073ffffffffffffffffffffffffffffffffffffffff1663095ea7b37f0000000000000000000000000000000000000000000000000000000000000000346040518363ffffffff1660e01b8152600401610b94929190611210565b6020604051808303815f875af1158015610bb0573d5f803e3d5ffd5b505050506040513d601f19601f82011682018060405250810190610bd49190611157565b610c13576040517f08c379a0000000000000000000000000000000000000000000000000000000008152600401610c0a90611874565b60405180910390fd5b7f000000000000000000000000000000000000000000000000000000000000000073ffffffffffffffffffffffffffffffffffffffff1663414bf3896040518061010001604052807f000000000000000000000000000000000000000000000000000000000000000073ffffffffffffffffffffffffffffffffffffffff1681526020018773ffffffffffffffffffffffffffffffffffffffff1681526020018662ffffff1681526020013373ffffffffffffffffffffffffffffffffffffffff16815260200161025842610ce89190611326565b81526020013481526020018581526020015f73ffffffffffffffffffffffffffffffffffffffff168152506040518263ffffffff1660e01b8152600401610d2f91906116e6565b6020604051808303815f875af1158015610d4b573d5f803e3d5ffd5b505050506040513d601f19601f82011682018060405250810190610d6f9190611700565b90505b8373ffffffffffffffffffffffffffffffffffffffff167f000000000000000000000000000000000000000000000000000000000000000073ffffffffffffffffffffffffffffffffffffffff163373ffffffffffffffffffffffffffffffffffffffff167fd36cc53ba71bc76a3db3364981f5296dd4ca5eba0e8c89874f2170515bd20d243485604051610e0892919061172b565b60405180910390a4949350505050565b5f73ffffffffffffffffffffffffffffffffffffffff82169050919050565b5f610e4182610e18565b9050919050565b610e5181610e37565b82525050565b5f602082019050610e6a5f830184610e48565b92915050565b5f604051905090565b5f80fd5b5f80fd5b5f60ff82169050919050565b610e9681610e81565b8114610ea0575f80fd5b50565b5f81359050610eb181610e8d565b92915050565b610ec081610e37565b8114610eca575f80fd5b50565b5f81359050610edb81610eb7565b92915050565b5f819050919050565b610ef381610ee1565b8114610efd575f80fd5b50565b5f81359050610f0e81610eea565b92915050565b5f62ffffff82169050919050565b610f2b81610f14565b8114610f35575f80fd5b50565b5f81359050610f4681610f22565b92915050565b5f805f805f60a08688031215610f6557610f64610e79565b5b5f610f7288828901610ea3565b9550506020610f8388828901610ecd565b9450506040610f9488828901610f00565b9350506060610fa588828901610f38565b9250506080610fb688828901610f00565b9150509295509295909350565b610fcc81610ee1565b82525050565b5f602082019050610fe55f830184610fc3565b92915050565b5f805f806080858703121561100357611002610e79565b5b5f61101087828801610ea3565b945050602061102187828801610ecd565b935050604061103287828801610f38565b925050606061104387828801610f00565b91505092959194509250565b5f82825260208201905092915050565b7f436f70795472616465526f757465723a20616d6f756e74206d757374206265205f8201527f3e20300000000000000000000000000000000000000000000000000000000000602082015250565b5f6110b960238361104f565b91506110c48261105f565b604082019050919050565b5f6020820190508181035f8301526110e6816110ad565b9050919050565b5f6060820190506111005f830186610e48565b61110d6020830185610e48565b61111a6040830184610fc3565b949350505050565b5f8115159050919050565b61113681611122565b8114611140575f80fd5b50565b5f815190506111518161112d565b92915050565b5f6020828403121561116c5761116b610e79565b5b5f61117984828501611143565b91505092915050565b7f436f70795472616465526f757465723a207472616e7366657246726f6d2066615f8201527f696c656400000000000000000000000000000000000000000000000000000000602082015250565b5f6111dc60248361104f565b91506111e782611182565b604082019050919050565b5f6020820190508181035f830152611209816111d0565b9050919050565b5f6040820190506112235f830185610e48565b6112306020830184610fc3565b9392505050565b7f436f70795472616465526f757465723a20617070726f76616c206661696c65645f82015250565b5f61126b60208361104f565b915061127682611237565b602082019050919050565b5f6020820190508181035f8301526112988161125f565b9050919050565b7f4e487b71000000000000000000000000000000000000000000000000000000005f52604160045260245ffd5b7f4e487b71000000000000000000000000000000000000000000000000000000005f52603260045260245ffd5b7f4e487b71000000000000000000000000000000000000000000000000000000005f52601160045260245ffd5b5f61133082610ee1565b915061133b83610ee1565b9250828201905080821115611353576113526112f9565b5b92915050565b5f81519050919050565b5f82825260208201905092915050565b5f819050602082019050919050565b61138b81610e37565b82525050565b5f61139c8383611382565b60208301905092915050565b5f602082019050919050565b5f6113be82611359565b6113c88185611363565b93506113d383611373565b805f5b838110156114035781516113ea8882611391565b97506113f5836113a8565b9250506001810190506113d6565b5085935050505092915050565b5f60a0820190506114235f830188610fc3565b6114306020830187610fc3565b818103604083015261144281866113b4565b90506114516060830185610e48565b61145e6080830184610fc3565b9695505050505050565b5f80fd5b5f601f19601f8301169050919050565b6114858261146c565b810181811067ffffffffffffffff821117156114a4576114a361129f565b5b80604052505050565b5f6114b6610e70565b90506114c2828261147c565b919050565b5f67ffffffffffffffff8211156114e1576114e061129f565b5b602082029050602081019050919050565b5f80fd5b5f8151905061150481610eea565b92915050565b5f61151c611517846114c7565b6114ad565b9050808382526020820190506020840283018581111561153f5761153e6114f2565b5b835b81811015611568578061155488826114f6565b845260208401935050602081019050611541565b5050509392505050565b5f82601f83011261158657611585611468565b5b815161159684826020860161150a565b91505092915050565b5f602082840312156115b4576115b3610e79565b5b5f82015167ffffffffffffffff8111156115d1576115d0610e7d565b5b6115dd84828501611572565b91505092915050565b5f6115f082610ee1565b91506115fb83610ee1565b9250828203905081811115611613576116126112f9565b5b92915050565b61162281610f14565b82525050565b61163181610ee1565b82525050565b61164081610e18565b82525050565b61010082015f82015161165b5f850182611382565b50602082015161166e6020850182611382565b5060408201516116816040850182611619565b5060608201516116946060850182611382565b5060808201516116a76080850182611628565b5060a08201516116ba60a0850182611628565b5060c08201516116cd60c0850182611628565b5060e08201516116e060e0850182611637565b50505050565b5f610100820190506116fa5f830184611646565b92915050565b5f6020828403121561171557611714610e79565b5b5f611722848285016114f6565b91505092915050565b5f60408201905061173e5f830185610fc3565b61174b6020830184610fc3565b9392505050565b7f436f70795472616465526f757465723a206d7573742073656e64204d4f4e00005f82015250565b5f611786601e8361104f565b915061179182611752565b602082019050919050565b5f6020820190508181035f8301526117b38161177a565b9050919050565b5f6080820190506117cd5f830187610fc3565b81810360208301526117df81866113b4565b90506117ee6040830185610e48565b6117fb6060830184610fc3565b95945050505050565b7f436f70795472616465526f757465723a20574d4f4e20563320617070726f76615f8201527f6c206661696c6564000000000000000000000000000000000000000000000000602082015250565b5f61185e60288361104f565b915061186982611804565b604082019050919050565b5f6020820190508181035f83015261188b81611852565b905091905056fea26469706673582212200519309576eb5792787d998e6386922dee4b2fb5db6bbd7711eedfcc3df3628164736f6c634300081a0033","linkReferences":{}},"methodIdentifiers":{"buyToken(uint8,address,uint24,uint256)":"bf30098a","sellToken(uint8,address,uint256,uint24,uint256)":"b3240665","uniswapV2Router()":"1694505e","uniswapV3Router()":"2c76d7a6","weth()":"3fc8cef3"},"id":0}